{
  "_format": "hh-sol-artifact-1",
  "contractName": "WavePortal",
  "sourceName": "contracts/WavePortal.sol",
  "abi": [
    {
      "inputs": [],
      "stateMutability": "nonpayable",
      "type": "constructor"
    },
    {
      "inputs": [],
      "name": "WaveCount",
      "outputs": [],
      "stateMutability": "nonpayable",
      "type": "function"
    },
    {
      "inputs": [],
      "name": "getAllUserAddress",
      "outputs": [
        {
          "internalType": "address[]",
          "name": "UserAddress",
          "type": "address[]"
        }
      ],
      "stateMutability": "view",
      "type": "function"
    },
    {
      "inputs": [],
      "name": "getTotalWaveCounts",
      "outputs": [
        {
          "internalType": "uint256",
          "name": "",
          "type": "uint256"
        }
      ],
      "stateMutability": "view",
      "type": "function"
    },
    {
      "inputs": [],
      "name": "storeUserAddress",
      "outputs": [],
      "stateMutability": "nonpayable",
      "type": "function"
    }
  ],
  "bytecode": "0x608060405234801561001057600080fd5b506100596040518060400160405280600c81526020017f2048656c6c6f20576f726c64000000000000000000000000000000000000000081525061005e60201b6101b01760201c565b6101e1565b6100fa81604051602401610072919061015f565b6040516020818303038152906040527f41304fac000000000000000000000000000000000000000000000000000000007bffffffffffffffffffffffffffffffffffffffffffffffffffffffff19166020820180517bffffffffffffffffffffffffffffffffffffffffffffffffffffffff83818316178352505050506100fd60201b60201c565b50565b60008151905060006a636f6e736f6c652e6c6f679050602083016000808483855afa5050505050565b600061013182610181565b61013b818561018c565b935061014b81856020860161019d565b610154816101d0565b840191505092915050565b600060208201905081810360008301526101798184610126565b905092915050565b600081519050919050565b600082825260208201905092915050565b60005b838110156101bb5780820151818401526020810190506101a0565b838111156101ca576000848401525b50505050565b6000601f19601f8301169050919050565b6106d5806101f06000396000f3fe608060405234801561001057600080fd5b506004361061004c5760003560e01c8063149440d9146100515780632556645b1461006f578063e59a208714610079578063f6f3a88914610083575b600080fd5b6100596100a1565b6040516100669190610486565b60405180910390f35b6100776100a6565b005b61008161010b565b005b61008b610165565b604051610098919061052a565b60405180910390f35b606090565b6001339080600181540180825580915050600190039060005260206000200160009091909190916101000a81548173ffffffffffffffffffffffffffffffffffffffff021916908373ffffffffffffffffffffffffffffffffffffffff160217905550565b600160008082825461011d919061059a565b925050819055506101636040518060400160405280600c81526020017f257320686173207761766564000000000000000000000000000000000000000081525033610249565b565b60006101a86040518060400160405280601781526020017f5765206861766520256420746f74616c207761766573210000000000000000008152506000546102e5565b600054905090565b610246816040516024016101c491906104a8565b6040516020818303038152906040527f41304fac000000000000000000000000000000000000000000000000000000007bffffffffffffffffffffffffffffffffffffffffffffffffffffffff19166020820180517bffffffffffffffffffffffffffffffffffffffffffffffffffffffff8381831617835250505050610381565b50565b6102e1828260405160240161025f9291906104ca565b6040516020818303038152906040527f319af333000000000000000000000000000000000000000000000000000000007bffffffffffffffffffffffffffffffffffffffffffffffffffffffff19166020820180517bffffffffffffffffffffffffffffffffffffffffffffffffffffffff8381831617835250505050610381565b5050565b61037d82826040516024016102fb9291906104fa565b6040516020818303038152906040527f9710a9d0000000000000000000000000000000000000000000000000000000007bffffffffffffffffffffffffffffffffffffffffffffffffffffffff19166020820180517bffffffffffffffffffffffffffffffffffffffffffffffffffffffff8381831617835250505050610381565b5050565b60008151905060006a636f6e736f6c652e6c6f679050602083016000808483855afa5050505050565b60006103b683836103c2565b60208301905092915050565b6103cb816105f0565b82525050565b6103da816105f0565b82525050565b60006103eb82610555565b6103f58185610578565b935061040083610545565b8060005b8381101561043157815161041888826103aa565b97506104238361056b565b925050600181019050610404565b5085935050505092915050565b600061044982610560565b6104538185610589565b935061046381856020860161062c565b61046c8161068e565b840191505092915050565b61048081610622565b82525050565b600060208201905081810360008301526104a081846103e0565b905092915050565b600060208201905081810360008301526104c2818461043e565b905092915050565b600060408201905081810360008301526104e4818561043e565b90506104f360208301846103d1565b9392505050565b60006040820190508181036000830152610514818561043e565b90506105236020830184610477565b9392505050565b600060208201905061053f6000830184610477565b92915050565b6000819050602082019050919050565b600081519050919050565b600081519050919050565b6000602082019050919050565b600082825260208201905092915050565b600082825260208201905092915050565b60006105a582610622565b91506105b083610622565b9250827fffffffffffffffffffffffffffffffffffffffffffffffffffffffffffffffff038211156105e5576105e461065f565b5b828201905092915050565b60006105fb82610602565b9050919050565b600073ffffffffffffffffffffffffffffffffffffffff82169050919050565b6000819050919050565b60005b8381101561064a57808201518184015260208101905061062f565b83811115610659576000848401525b50505050565b7f4e487b7100000000000000000000000000000000000000000000000000000000600052601160045260246000fd5b6000601f19601f830116905091905056fea26469706673582212203c887d1a63613d122a36777bf9fa94216099414b0f7af2e33ff48afbe97c3eee64736f6c63430008040033",
  "linkReferences": {},
  "deployedLinkReferences": {}
}